:04000000803199288A
:100008007E14803100308600003087004E01901C3D
:100018000E280F286D28901041016208F60061082B
:10002800F50075083F39F2007208F0000230F0352B
:10003800890B1B287008F3007D08F4007D087307FE
:10004800FD0074087D0203182A282B283C2840301C
:10005800F5070030F63D003076024030031975028E
:100068000318372838283C284030F5020030F63B82
:100078007608F1007508F0000630F136F00C890BAF
:1000880041287008F7007108F80004307802003041
:1000980003197702031C512852285628FF30F7000D
:1000A8000330F800FF30F7050330F8057808F10051
:1000B8007708F000F136F00CF136F00C70084601C4
:1000C80095007708F0000630F035890B682870082D
:1000D80094004E01101C7128722897281010F030D7
:1000E80044018D0060308C007B087C0403197D2856
:1000F8007E2882280130FB020030FC3B79087A0414
:100108000319872888288C280130F9020030FA3B27
:1001180041015D085E04031992289328972801304D
:10012800DD020030DE3B7E10090080319B289730CD
:1001380084009230850041011200E6001200E700B9
:100148001200E8001200E9001200EA00F901FA01C1
:10015800FB01FC01FD014001ED01EE01EF01D5308D
:10016800840000308500113092319C22803120308B
:10017800840001308500103092319C2280317E103D
:1001880040018431C72C0034003401340034013478
:1001980000340234003402340034033400340434AC
:1001A800003405340034073400340834003409348A
:1001B80000340B3400340D3400340F34003411345F
:1001C80000341434003416340034193400341C3428
:1001D80000341F34003423340034263400342A34E5
:1001E80000342E34003432340034363400343B3496
:1001F800003440340034453400344A340034503438
:100208000034563400345C340034623400346934C9
:1002180000346F340034763400347E34003485344E
:1002280000348D340034953400349E340034A634C0
:100238000034AF340034B9340034C2340034CC3420
:100248000034D6340034E0340034EB340034F6346F
:100258000034013401340D340134193401342534A7
:100268000134323401343E3401344C3401345934CD
:1002780001346734013475340134833401349234E1
:100288000134A1340134B1340134C1340134D134DE
:100298000134E1340134F2340134033402341534C6
:1002A800023427340234393402344B3402345E3495
:1002B8000234723402348534023499340234AE3450
:1002C8000234C2340234D8340234ED3402340334F4
:1002D80003341934033430340334473403345E347C
:1002E8000334763403348E340334A7340334C034EF
:1002F8000334D9340334F33403340D340434283448
:100308000434433404345E3404347A340434963484
:100318000434B3340434D0340434ED3404340B34AA
:1003280005342934053448340534673405348734B2
:100338000534A7340534C7340534E83405340934A2
:1003480006342B3406344D34063470340634933472
:100358000634B6340634DA340634FF34063424342A
:100368000734493407346F34073495340734BB34C1
:100378000734E33407340A340834323408345B343D
:10038800083484340834AD340834D734083401349C
:1003980009342C3409345734093483340934AF34DC
:1003A8000934DC34093409340A3437340A346534FE
:1003B8000A3494340A34C3340A34F3340A34233400
:1003C8000B3453340B3484340B34B6340B34E834E4
:1003D8000B341B340C344E340C3481340C34B634A6
:1003E8000C34EA340C341F340D3455340D348B344A
:1003F8000D34C2340D34F9340D3431340E346934CB
:100408000E34A1340E34DB340E3414340F344F342C
:100418000F348A340F34C5340F34013410343D346A
:1004280010347A341034B8341034F6341034343488
:10043800113473341134B3341134F3341134343483
:10044800123475341234B7341234F93412343C345B
:1004580013347F341334C3341334083414344D3410
:10046800143492341434D93414341F3415346734A2
:100478001534AE341534F734153440341634893411
:100488001634D43416341E34173469341734B5345A
:100498001734023418344F3418349C341834EA347E
:1004A80018343934193488341934D834193429347F
:1004B8001A347A341A34CB341A341E341B34703458
:1004C8001B34C4341B3418341C346C341C34C1340D
:1004D8001C3417341D346E341D34C5341D341C349B
:1004E8001E3474341E34CD341E3426341F34803404
:1004F8001F34DB341F343634203492342034EE3445
:1005080020344B342134A93421340734223466345E
:100518002234C63422342634233486342334E8344F
:1005280023344A342434AC3424340F34253473341B
:100538002534D83425343D342634A23426340934BD
:10054800273470342734D734273440342834A93436
:100558002834123429347C342934E7342934523489
:100568002A34BF342A342B342B3499342B340734AF
:100578002C3475342C34E5342C3455342D34C534AE
:100588002D3437342E34A8342E341B342F348E3483
:100598002F340234303477343034EC34303462342D
:1005A8003134D834313450343234C83432344034AD
:1005B8003334B934333433343434AE343434293402
:1005C8003534A5343534213436349F3436341D342B
:1005D80037349B3437341A3438349A3438341B342B
:1005E80039349C3439341E343A34A1343A342534FD
:1005F8003B34A9343B342D343C34B3343C343934A3
:100608003D34C0343D3447343E34D0343E3458341D
:100618003F34E2343F346C344034F734403483346C
:100628004134103442349D3442342A344334B9348A
:10063800433448344434D834443469344534FA347F
:1006480045348C3446341F344734B3344734473444
:100658004834DC3448347134493408344A349F34DB
:100668004A3437344B34CF344B3468344C34023446
:100678004D349D344D3438344E34D5344E34713481
:100688004F340F345034AD3450344C345134EC348E
:1006980051348D3452342E345334D034533473346B
:1006A800543416345534BB3455345F345634053419
:1006B8005734AC34573453345834FB345834A33497
:1006C80059344D345A34F7345A34A2345B344E34E6
:1006D8005C34FA345C34A7345D3455345E34043405
:1006E8005F34B3345F346434603415346134C634F1
:1006F8006134793462342C346334E03463349534AF
:1007080064344A34653401346634B83466346F343A
:10071800673428346834E13468349C346934573495
:100728006A3412346B34CF346B348C346C344A34BE
:100738006D3409346E34C8346E3489346F344A34B5
:1007480070340C347134CE3471349234723456347B
:1007580073341B347434E1347434A83475346F340E
:1007680076343734773400347834CA34783495346E
:10077800793460347A342C347B34F9347B34C7349C
:100788007C3495347D3465347E3435347F34063496
:100798008034D8348034AA3481347E34823452345C
:1007A800833427348434FD348434D3348534AB34EF
:1007B8008634833487345C3488343634893410344E
:1007C8008A34EC348A34C8348B34A5348C3483347A
:1007D8008D3462348E3442348F342234903403346E
:1007E8009134E5349134C8349234AC349334903431
:1007F8009434763495345C349634433497342A34BC
:10080800983413349934FD349934E7349A34D23413
:100818009B34BE349C34AB349D3499349E34873435
:100828009F347634A0346634A1345734A234493422
:10083800A3343C34A4343034A5342434A6341934D5
:10084800A7340F34A8340634A934FE34A934F73455
:10085800AA34F034AB34EA34AC34E634AD34E234A0
:10086800AE34DE34AF34DC34B034DB34B134DA34B3
:10087800B234DA34B334DC34B434DE34B534E1348D
:10088800B634E434B734E934B834EE34B934F53432
:10089800BA34FC34BB340434BD340D34BE3417349C
:1008A800BF342134C0342D34C1343934C2344734D0
:1008B800C3345534C4346434C5347434C6348534CC
:1008C800C7349634C834A934C934BC34CA34D03493
:1008D800CB34E634CC34FC34CD341334CF342A341E
:1008E800D0344334D1345D34D2347734D334933470
:1008F800D434AF34D534CC34D634EA34D73409348C
:10090800D9342934DA344A34DB346B34DC348E3469
:10091800DD34B134DE34D534DF34FB34E034213413
:10092800E2344834E3346F34E4349834E534C23480
:10093800E634ED34E7341834E9344434EA347234B4
:10094800EB34A034EC34CF34ED34FF34EE343034AF
:10095800F0346234F1349534F234C834F334FD346D
:10096800F4343234F6346934F734A034F834D834F3
:10097800F9341234FB344C34FC348734FD34C3343A
:10098800FE34FF34FF3451011308F8390538930059
:10099800F0308D050D088F3960388D000F1ED52C6D
:1009A800D62CD22C50010C08C13912388C008F304B
:1009B8008D050C10640052018E178E169431E724B1
:1009C80084319531702584319331082384319231F3
:1009D800CC2284314001181534304101C700F13070
:1009E800890BF42CC70BF42C00324001181101308C
:1009F8008C3155248431003A031D032D042D2E2DEE
:100A080000304001A000A100933137238431023027
:100A18004101C800A030C7009230890B112DC70BC7
:100A2800112DC80B112D0000FF304001A00003302C
:100A3800A10093313723843102304101C800A0302E
:100A4800C7009230890B262DC70B262DC80B262DE3
:100A58000000042D00304001D2000030D1004E309B
:100A6800D0002030CF008A31D422843100304001B8
:100A7800AF000030AE000030AD000030AC0088316F
:100A8800092084314101CF01D001963114268431E7
:100A9800CF304001AC008731CD278431003A0319AB
:100AA800562D572DF02E64000130410150022C3094
:100AB80003194F020318612D622D6B2D003050026F
:100AC800153003194F0203186A2D6B2D6F2DE501A0
:100AD80040011811732D0130E5004001181541013E
:100AE8005008C8004F08C7000430C836C70C890B27
:100AF800792D470852018F00D82E65080319852DD6
:100B0800862DF02E2C30FB000130FC002830F90037
:100B18000030FA000130E400F02E65080319952D25
:100B2800962DA72D7B087C04031D9B2D9C2DF02E54
:100B38006A080319A02DA12DA42D0530E400F02E7C
:100B48000630E400F02E7B087C040319AC2DAD2D93
:100B5800BE2D79087A04031DB22DB32DBE2D0230A7
:100B6800E4002C30FB000130FC002830F900003094
:100B7800FA00F02EE401F02E65080319C42DC52DE6
:100B8800D72D79087A040319CA2DCB2DCC2DBE2D6B
:100B98002C30FB000130FC002830F9000030FA004E
:100BA8000330E400F02E7B087C04031DDC2DDD2DD2
:100BB800F02EBE2D65080319E22DE32DEA2D7B08E2
:100BC8007C04031DE82DE92DF02EBE2D7B087C0446
:100BD8000319EF2DF02DF02E79087A04031DF52D59
:100BE800F62DF02E6A080319FA2DFC2D0130FD2D83
:100BF8000030EA006A080319022E032E082E67083F
:100C0800E9006608E800BE2DE801E901BE2D650887
:100C1800031D0F2E102EF02EBE2D65080319152E5C
:100C2800162EBD2E0030D4000030D3000030D20084
:100C3800DC30D10000305002DD3003194F02031CB4
:100C4800262E272E302E0030D4000030D30000305E
:100C5800D2000030D1004E2E4F08C7005008C800FF
:100C6800C901CA015108CB005208CC005308CD0075
:100C78005408CE004708CB024808CC3B4908CD3B76
:100C88004A08CE3B4E08D4004D08D3004C08D20089
:100C98004B08D10054084001A3004101530840010A
:100CA800A200410152084001A10041015108400140
:100CB800A0000030A7000030A6000030A500963044
:100CC800A400943143248431400123084101D40015
:100CD800400122084101D300400121084101D2000E
:100CE800400120084101D100D41B852E5408031D62
:100CF800862E5308031D862E80305202031C852E33
:100D0800862E8F2E00304101D4000030D3007F3072
:100D1800D200FF30D1004101D41BA02E5408031D7E
:100D28009F2E5308031D9F2EE83051020330523B7B
:100D380003189F2EA02EA92E00304101D4000030A8
:100D4800D3000330D200E830D10041015208E90055
:100D58005108E8006908E7006808E60069084001EA
:100D6800A100410168084001A0009331702384313B
:100D7800F02EE40100304001A000A100933170235F
:100D88008431400121084101E90040012008410166
:100D9800E8006908E7006808E600F02E6508031D0A
:100DA800D62ED72EF02EBE2D41016408003A031925
:100DB800812D013A0319912D033A0319C02D013AE7
:100DC8000319DE2D073A03190B2E013A0319112EC8
:100DD800033A0319D22EF02E06304101C7003030F5
:100DE800890BF42EC70BF42E0000492D8031992869
:100DF800003094311B2486314001CD00CE014B08D0
:100E080086004C0887004D08C03F4E08C13F463059
:100E1800933191238631013E4001CD000030031803
:100E28000130CE004B088600870144314D08C03F91
:100E38004E08C13F4B08860087014431403FB90046
:100E4800413FBA004B0886004C0887000108BB00E8
:100E580097317B27863140014B08860087014A314C
:100E68003908C03F3A08C13F3B08C23F3C08C33F6E
:100E780051309431AC24863140012308AD0022085A
:100E8800AC009231F322863140014B08860087017D
:100E980046312C08C03F2D08C13F4B08860087010A
:100EA8004631403FB900413FBA004B0886004C0824
:100EB80087000108BB0097317B27863140014B082A
:100EC800860087014E313908C03F3A08C13F3B08C8
:100ED800C23F3C08C33F013094311B248631400196
:100EE800CD00CE014B088600870142314D08C03F36
:100EF8004E08C13F71309431AC248631400123083B
:100F0800AD002208AC009231F322863140014B0833
:100F18008600870148312C08C03F2D08C13F490889
:100F2800860087014331010803199B2F9C2FAE2FA0
:100F38004B08860087014631403FCD00413FCE0037
:100F48004B088600870148314D08810241314E081F
:100F5800813B7F314B08860087014831403FB9000B
:100F6800413FBA004B088600870142310108BB00A7
:100F780097317B27863140014B0886008701523123
:100F88003908C03F3A08C13F3B08C23F3C08C33F4D
:100F9800080013309331912387314001AF002F08A7
:100FA8000739031DD82FD92FDB2F0030F82F1E301B
:100FB8009431AC24873140012308AE002208AD00EB
:100FC800A401A40A0B3093311E23873140012C0859
:100FD8000319EF2FF02FF72F2C08860087012D0813
:100FE800C03F2E08C13F0130080055307D018F00F9
:080FF800AA308F000F10080061
:1010040055307D018F00AA308F000F140800400175
:10101400A401A40A803093311E2388314001A40125
:10102400A40AFF3093311E2388314001A40100300B
:1010340093311E23883140016D08A400913093310F
:101044001E2388314001A401A40A003093311E23D9
:1010540088314001A401FF3093311E2388314001BF
:10106400A401803093311E23883140012F082E04BF
:101074002D042C0403193F2840287D28F83094318E
:10108400AC24883140012308B1002208B0003008A4
:10109400310403194E284F2869283008A00031086C
:1010A400A100A201A3012F08A7002E08A6002D0865
:1010B400A5002C08A400943143248831400123085E
:1010C400AF002208AE002108AD002008AC002F08B4
:1010D400A4002E08A3002D08A2002C08A1000430AF
:1010E4009531BF25883104304001A400003093318C
:1010F4001E23883183280230A400003093311E233C
:101104008831080000304001AF000030AE000330E9
:10111400AD00E830AC00F430BE000130BF00003058
:10112400C0000030C1003D08C200C301C401C501B4
:101134004508A3004408A2004308A1004208A000F7
:101144000030A7003A30A6002F30A5000030A400DC
:1011540094314324883140012008BE072108BF3D53
:101164002208C03D2308C13D4108B3004008B20035
:101174003F08B1003E08B00096316A26883140012C
:101184002F08C9002E08C8002D08C7002C08C60067
:101194004908AF004808AE004708AD004608AC0057
:1011A4004608BE004708BF004808C0004908C100FF
:1011B4000130C136C00CBF0CBE0C890BDB283C08C7
:1011C400A3003B08A2003A08A1003908A00000309F
:1011D400A7000030A6000330A500E830A400943135
:1011E4004324883140012008BE072108BF3D22085E
:1011F400C03D2308C13D4108B3004008B2003F0888
:10120400B1003E08B00096316A26883140012F08AB
:10121400BC002E08BB002D08BA002C08B900080039
:101224004001A401A40A803093311E238931400176
:10123400A401A40AFF3093311E2389314001A40183
:10124400003093311E23893106304001A400FF3061
:1012540093311E23893183309331912389310438AA
:101264004001A400833093311E23893107304001AB
:10127400A400FF3093311E2389314001A401A40A44
:10128400813093311E2389314001A401A40A8030A6
:1012940093311E2389316B304001A4009430933183
:1012A4001E2389314001A401833093311E238931E7
:1012B4008330933191238931003A031962296329D8
:1012C4005A294001A401A40A833093311E23893191
:1012D40092309331912389314001A9002608860078
:1012E400870129087F39810027088600870129089A
:1012F400A8000730A836890B7C292818822984295C
:101304000130852900308100A401813093311E23EE
:10131400893106304001A400FF3093311E23893106
:101324008330933191238931FB394001A400833008
:1013340093311E2389314001A401A40AFF30933163
:101344001E2389314001A401A40A003093311E23D5
:1013540089314001A401FF3093311E2389314001BA
:10136400A401803093311E238931013008000030FC
:101374004101A3000030A2000B30A1003630A000D0
:10138400A4304001A4000030A50097311F27893103
:10139400A4304001C9000030CA00A930CB0000309D
:1013A400CC008631FC268931410124080319DB294C
:1013B400DC29012A4E304001D3000230D400003031
:1013C400D5000030D600A9308600003087004A31AD
:1013D400403FD307413FD43D423FD53D433FD63DF7
:1013E40053084101A007400154084101A13D4001B7
:1013F40055084101A23D400156084101A33D26087C
:101404000319052A062A3E2A64304001D300053018
:10141400D4000030D5000030D6004101330840012B
:10142400D700410134084001D8004101350840018A
:10143400D900410136084001DA000130D735D80D12
:10144400D90DDA0D890B202A5708D3075808D43D43
:101454005908D53D5A08D63D53084101A00740011B
:1014640054084101A13D400155084101A23D4001FC
:1014740056084101A33D682A25080319422A432A34
:10148400682A94304001D3000230D4000030D500E3
:101494000030D600A9308600003087004A31403F32
:1014A400D307413FD43D423FD53D433FD63D53084A
:1014B4004101A007400154084101A13D40015508E4
:1014C4004101A23D400156084101A33D27080319EB
:1014D4006C2A6D2A922A94304001D3000230D40041
:1014E4000030D5000030D600A930860000308700D7
:1014F4004E31403FD307413FD43D423FD53D433F6A
:10150400D63D53084101A007400154084101A13DC3
:10151400400155084101A23D400156084101A33D47
:1015240028080319962A972ABC2A26304001D3009A
:101534000230D4000030D5000030D600A930860037
:10154400003087005231403FD307413FD43D423FF2
:10155400D53D433FD63D53084101A00740015408FF
:101564004101A13D400155084101A23D40015608F9
:101574004101A33D2308D8002208D7002108D60042
:101584002008D50023084001D2004101220840016F
:10159400D100410121084001D0004101200840014F
:1015A400CF00080000304101AB000030AA000B302E
:1015B400A9003630A800AC304001A4000030A500DA
:1015C40097311F278A31AC304001C9000030CA006E
:1015D400B130CB000030CC008631FC268A31410189
:1015E4002C080319F62AF72A1C2B4E304001D3008D
:1015F4000230D4000030D5000030D600B13086006F
:10160400003087004A31403FD307413FD43D423F39
:10161400D53D433FD63D53084101A8074001540836
:101624004101A93D400155084101AA3D4001560828
:101634004101AB3D2E080319202B212B592B64307B
:101644004001D3000530D4000030D5000030D6006E
:1016540041013B084001D70041013C084001D8004A
:1016640041013D084001D90041013E084001DA0032
:101674000130D735D80DD90DDA0D890B3B2B57081E
:10168400D3075808D43D5908D53D5A08D63D5308C8
:101694004101A807400154084101A93D40015508F2
:1016A4004101AA3D400156084101AB3D832B2D0861
:1016B40003195D2B5E2B832B94304001D300023041
:1016C400D4000030D5000030D600B13086000030A0
:1016D40087004A31403FD307413FD43D423FD53D87
:1016E400433FD63D53084101A80740015408410136
:1016F400A93D400155084101AA3D40015608410158
:10170400AB3D2F080319872B882BAD2B9430400158
:10171400D3000230D4000030D5000030D600B13000
:101724008600003087004E31403FD307413FD43D0F
:10173400423FD53D433FD63D53084101A8074001F0
:1017440054084101A93D400155084101AA3D400109
:1017540056084101AB3D30080319B12BB22B542C70
:101764002630A8070230A93D0030AA3D0030AB3D29
:101774002B0840015202031DCF2B41012A084001CE
:101784005102031DCF2B4101290840015002031DC2
:10179400CF2B4101280840014F020318D22BD32B31
:1017A400D42B542C4101280840014F02D30041019D
:1017B40029084001503BD40041012A084001513B13
:1017C400D50041012B084001523BD6005608410187
:1017D400A300400155084101A20040015408410101
:1017E400A100400153084101A00023084001BC00AE
:1017F400410122084001BB00410121084001BA0017
:10180400410120084001B900410133084001BD00F5
:10181400883184208A3140013C084101A7004001FD
:101824003B084101A60040013A084101A5004001DE
:1018340039084101A4002F080319212C222C292C3A
:101844003708A4073808A53D0030A63DA73D270862
:101854004001A300410126084001A20041012508DE
:101864004001A100410124084001A0009531262532
:101874008A3140012108AF002008AE007130933155
:1018840052238A31400152084101D80040015108D5
:101894004101D700400150084101D60040014F08E2
:1018A4004101D50008004001E400C0309331912388
:1018B4008C31EE3A03195F2C602C622C0030FF2F20
:1018C400400164080319672C682C752C8930933106
:1018D40091238C314001E70067080138A400893066
:1018E40093311E238C314001A401883093311E238F
:1018F4008C314001A401A40A803093311E238C3121
:101904004001A401A40AFF3093311E238C3140010D
:10191400A401003093311E238C31913093319123F3
:101924008C314001ED00A401A40A003093311E2340
:101934008C314001A401FF3093311E238C314001CE
:10194400A401803093311E238C3160309331912374
:101954008C3112384001A400603093311E238C3145
:1019640000304001D2000030D1008030D000E83097
:10197400CF008A31D4228C3120304001AE000030B7
:10198400AF004430933152238C31FF304001A40026
:10199400013093311E238C316A304001A6006B3034
:1019A400A700893112218C31003A031DDA2CDB2C7B
:1019B400DC2C602C5E304001A2000630A300B03065
:1019C400943177248C314001A401A40AFF3093316F
:1019D4001E238C314001A4014F3093311E238C31DE
:1019E4002C304001A4004E3093311E238C31400131
:1019F400A401FF3093311E238C31B4304001A40084
:101A0400B63093311E238C3140016B08031D0B2D1E
:101A14000C2D0F2DE501E601132D0C30E5000030EF
:101A2400E6006508E800E901EC0130306C02031CB3
:101A34001C2D1D2D1E2D742D68086C02031C232DD6
:101A4400242D2A2D69086A06031D292D2A2D4A2DC5
:101A54000830A0000030A1006C08DB00DC015B084A
:101A6400A2005C08A3009631C3268C3140012008F3
:101A74005E3E860087010130DD006C080739890A63
:101A8400442DDD35890B432D5D08FF3A81056C2D0E
:101A94000830A0000030A1006C08DB00DC015B080A
:101AA400A2005C08A3009631C3268C3140012008B3
:101AB4005E3E860087010108DD006C080739890A4B
:101AC400642DDD36890B632D5D1C692D6A2D6C2D0B
:101AD4000130E9070130EC0730306C02031C732D30
:101AE400742D1E2D5E30A1000630A200B03093315B
:101AF400F6238C314001A401A40AFF3093311E2344
:101B04008C314001A401003093311E238C314001FB
:101B1400A401FF3093311E238C314001A40109300C
:101B240093311E238C314001A401103093311E23C4
:101B34008C314001A401113093311E238C314001BA
:101B4400A401A40A243093311E238C31FF304001B8
:101B5400A400253093311E238C314001A40175303B
:101B640093311E238C314001A401A40AFF30933128
:101B74001E238C312C304001A4004E3093311E239F
:101B84008C314001A401483093311E238C31203024
:101B94004001A400303093311E238C314001A40154
:101BA400FF3093311E238C3109304001A4003030C2
:101BB40093311E238C314001A401543093311E23F0
:101BC4008C3104304001A400313093311E238C3118
:101BD40003304001A400323093311E238C31833012
:101BE4004001A400403093311E238C312530400144
:101BF400A400463093311E238C314001A40160308F
:101C040093311E238C314001A401273093311E23CC
:101C14008C3106304001A400503093311E238C31A6
:101C24004001A401513093311E238C319630400180
:101C3400A400523093311E238C3108304001A4009B
:101C4400563093311E238C3130304001A40057307C
:101C540093311E238C314001A401613093311E2342
:101C64008C314001A401623093311E238C31400138
:101C7400A401643093311E238C314001A4016530EA
:101C840093311E238C31A0304001A400663093317F
:101C94001E238C314001A401A40AFF3093311E237A
:101CA4008C3132304001A400223093311E238C3118
:101CB40014304001A400473093311E238C31FF308F
:101CC4004001A400493093311E238C314001A4010A
:101CD4004A3093311E238C314001A401FF309331EB
:101CE4001E238C310A304001A4007A3093311E2324
:101CF4008C314001A4017B3093311E238C3121307F
:101D04004001A400783093311E238C314001A4019A
:101D1400A40AFF3093311E238C3134304001A400D7
:101D2400233093311E238C314001A401423093317E
:101D34001E238C31FF304001A400443093311E2314
:101D44008C3126304001A400453093311E238C3160
:101D540005304001A400463093311E238C314030BD
:101D64004001A400403093311E238C3106304001E1
:101D7400A4000E3093311E238C311A304001A4008C
:101D8400203093311E238C3140304001A400433075
:101D940093311E238C314001A401FF3093311E2363
:101DA4008C3103304001A400343093311E238C3134
:101DB40044304001A400353093311E238C3140015E
:101DC400A401A40AFF3093311E238C310430400156
:101DD400A400313093311E238C3109304001A4001A
:101DE4004B3093311E238C3105304001A4004C301C
:101DF40093311E238C3104304001A4004D309331C3
:101E04001E238C314001A401FF3093311E238C31F9
:101E14004001A401443093311E238C312030400111
:101E2400A400453093311E238C3108304001A400B6
:101E3400473093311E238C3128304001A4004830B0
:101E440093311E238C314001A401673093311E234A
:101E54008C3104304001A400703093311E238C3146
:101E64004001A401A40A713093311E238C31FE3049
:101E74004001A400723093311E238C314001A4012F
:101E8400763093311E238C314001A4017730933195
:101E94001E238C314001A401A40AFF3093311E2378
:101EA4008C314001A401A40A0D3093311E238C31DE
:101EB4004001A401FF3093311E238C314001A40161
:101EC400A40A803093311E238C31F8304001A400E1
:101ED400013093311E238C314001A401A40AFF3048
:101EE40093311E238C314001A401A40A8E30933116
:101EF4001E238C314001A401A40A003093311E2317
:101F04008C314001A401FF3093311E238C314001F8
:101F1400A401803093311E238C3104304001A4008D
:101F24000A3093311E238C318430933191238C31C8
:101F3400EF394001A400843093311E238C314001D9
:101F4400A401A40A0B3093311E238C318931B921A9
:101F54008C31400152084101D8004001510841012F
:101F6400D700400150084101D60040014F0841010B
:101F7400D500E8304001A400013093311E238C3198
:101F8400410158084001D200410157084001D100E5
:101F9400410156084001D000410155084001CF00DD
:101FA4008A31D4228C314001A401A40A0130933136
:101FB4001E238C3140309331B2238C31003A031DFF
:101FC400E42FE52FE62F602C02304001A4000130FD
:101FD40093311E238C3100309331B2238C31003A7B
:101FE400031DF52FF62FF72F602CE8304001A400D5
:0C1FF400013093311E238C3101300800B5
:10252E000034403400344034013464008001013101
:10253E00890B9D2A00349231C022923143019114AD
:10254E009118AA2AAB2AA72A08009231C0229231EA
:10255E00430111141118B42AB52AB12A0800923178
:10256E00C0229231430111151119BE2ABF2ABB2A6E
:10257E000800430111081F39031DC62AC72AC02AA5
:10258E000F19CA2ACB2AC02A080044010E108E1435
:10259E0001309100CF308E058F01F0308D0060300C
:1025AE008C004E0110101A1444010E140800400144
:1025BE00A0009231C02292314001200843018C00CC
:1025CE004E010F1CEB2AEC2AE72A0F104301110EC5
:1025DE00890C890C01390800FF3040012C05AE0032
:1025EE0000302D05AF002D08890AFF2AAE35AF0D3C
:1025FE00890BFD2A2E08013EAC0000302F3DAD00A8
:10260E0008007E014E10CE104001141494144301A4
:10261E0090121008F039083890008F170F1391019F
:10262E0027308D004E010F10430190160800400117
:10263E00A5009231AC22933152309231DE22933189
:10264E00400125089231DE22933140012408923157
:10265E00DE2293314101E3009231B622933108001C
:10266E00FF304001A0050330A1052108A30020087A
:10267E00A200A336A20CA336A20C22084601950096
:10268E0040012008A2000630A235890B4B2B2208F0
:10269E004601940008004001B0009231AC22933103
:1026AE0052309231DE229331400130089231DE22D7
:1026BE00933140012F089231DE22933140012E08D2
:1026CE009231DE2293314101E3009231B6229331F1
:1026DE00080040016F35203E860001308700403FE4
:1026EE00A200413FA3006F35203E860001308700D7
:1026FE002008C03F2108C13F0130EF0708306F02AC
:10270E00031C8A2B8B2B8C2BEF012308A100220894
:10271E00A00008004001A2009231AC229331523049
:10272E009231DE229331400122089231DE22933122
:10273E009231A222933153309231DE229331003006
:10274E009331D32393314001A3009231B6229331BA
:10275E004001230808004001A60026080138A40005
:10276E00003093311E2393311330933191239331E3
:10277E0007390319C32BC42BBB2B4001A401A40A98
:10278E000B3093311E2393314001A401003093315D
:10279E001E239331013008004001A0009231C02267
:1027AE009331430191150F1CDD2BDE2BDA2B0C0818
:1027BE004001A1009231C02293314001200803193B
:1027CE00E92BEC2B43019116EE2B430191121116BE
:1027DE00111AF22BF32BEF2B4001210808004001B8
:1027EE00A3009231AC22933152309231DE229331DA
:1027FE00400123089231DE2293310F2C21088600EE
:10280E00870101089231DE22933101304001A10788
:10281E0001304001A202220A031D162C172C052C92
:10282E009231B622933108004001A5002508031D00
:10283E00212C222C2F2C5030933191239431400196
:10284E00A4000130A435890B292C2408023E422C09
:10285E002503031D332C342C412C703093319123DE
:10286E0094314001A4000130A435890B3B2C24087F
:10287E00023E422CFF30080000304001AB00003019
:10288E00AA000030A9000030A800201C4F2C502CAC
:10289E00582C2408A8072508A93D2608AA3D270874
:1028AE00AB3D0130A435A50DA60DA70D890B592CF6
:1028BE000130A336A20CA10CA00C890B602C2308AE
:1028CE00220421042004031D6D2C6E2C4C2C2B088D
:1028DE00A3002A08A2002908A1002808A0000800C9
:1028EE004001A4009231AC22943152309231DE225A
:1028FE009431400124089231DE2294319231A22289
:10290E00943153309231DE229431A02C2308031DD2
:10291E00912C932C0130942C0030A50022088600B7
:10292E00870125089331D323943181000130400172
:10293E00A20701304001A302230A031DA72CA82CD5
:10294E008D2C9231B622943108004001A7009231AD
:10295E00AC22943152309231DE229431400127085C
:10296E009231DE2294319231A2229431533092313F
:10297E00DE22943101309331D32394314001AA00E9
:10298E0000309331D32394314001AB009231B62203
:10299E00943140012A08A400A5012408A500A40131
:1029AE002408A8002508A9002B08A400A5012408C6
:1029BE00A8042508A9042908A3002808A2000800D5
:1029CE007E014E10CE104301901240011414941447
:1029DE000630890BF02C003240018E18F72CF82CA3
:1029EE00252DA0011A1014100630890BFC2C003274
:1029FE00400114140630890B022D003240018E1C4A
:102A0E00092D0A2D0B2D132D0130A00709302002A0
:102A1E00031C122D132DF92C9A1094100630890BCD
:102A2E00162D0032400114140630890B1C2D003275
:102A3E00400194140630890B222D0032080040010B
:102A4E00A801A90123082204210420040319302D12
:102A5E00312D6D2DFF302007AA00FF30213DAB0038
:102A6E00FF30223DAC00FF30233DAD00492D01303B
:102A7E00AD36AC0CAB0CAA0C890B3F2D0130A80760
:102A8E000030A93D00302A05A400FF302B05A5001B
:102A9E00FF302C05A600FF302D05A70027082604C1
:102AAE0025042404031D5C2D5D2D3E2DFF302A05CB
:102ABE00A40000302B05A5002808A700A6012408B5
:102ACE002604A00025082704A1006F2DA001A10156
:102ADE0008007E01CE124E12CE114001941614162D
:102AEE0094157E01381140011211FF3045018D0001
:102AFE004E0190108F3045018E05013090008E17DB
:102B0E004E01901C8B2D8C2D872D90108B138731A1
:102B1E00F92795310B307E01A5000B30A4000B3048
:102B2E00A3001530A0001630A10010307D01C500A5
:102B3E001130C6008831022095318B1746011612CE
:102B4E00FF304001A0000030A100933137239531B2
:102B5E007E01D1165116D115400194121412941102
:102B6E00460196174E0190109A140B178B170800FA
:102B7E004001A9009231AC22953152309231DE22C1
:102B8E009531400129089231DE229531400121080C
:102B9E00A5002208A6002308A7002408A8001830C4
:102BAE00A836A70CA60CA50C890BD72D250892319B
:102BBE00DE22953140012108A5002208A600230837
:102BCE00A7002408A8001030A836A70CA60CA50C48
:102BDE00890BEB2D25089231DE229531400121081B
:102BEE00A5002208A6002308A7002408A800083084
:102BFE00A836A70CA60CA50C890BFF2D2508923123
:102C0E00DE229531400121089231DE2295314101BB
:102C1E00E3009231B6229531080041015D085E0451
:102C2E0003191A2E1B2E1C2E692E1430DD000030B7
:102C3E00DE005F0868024001A30041016008693BA5
:102C4E004001A40023082404031D2E2E2F2E302E07
:102C5E00692E2408A1002308A0000530A200210D32
:102C6E00A10CA00CA20B362E20084101DF0740015B
:102C7E0021084101E03D80306002003003195F02FF
:102C8E00031C4A2E4B2E4F2EFF30DF007F30E0000C
:102C9E0060084001A10041015F084001A00006301C
:102CAE00A136A00C890B572EA035A10DC7302007D9
:102CBE0084000030213D80388500003F4101E10055
:102CCE00013FE200080000304001B7000030B600BE
:102CDE000030B5000030B4002F082E042D042C0453
:102CEE0003197A2E7B2EBA2E0130B800872E0130B2
:102CFE00AC35AD0DAE0DAF0D890B7F2E0130B80783
:102D0E00AF1F8A2E8B2E7E2E0130B435B50DB60D2B
:102D1E00B70D890B8C2E2F083302031DA02E2E0803
:102D2E003202031DA02E2D083102031DA02E2C08E9
:102D3E003002031CA32EA42EAD2E2C08B0022D089B
:102D4E00B13B2E08B23B2F08B33B34140130AF36E3
:102D5E00AE0CAD0CAC0C890BAE2E0130B802031DBF
:102D6E00B92EBA2E8B2E3708AF003608AE003508B6
:102D7E00AD003408AC0008004001A501A11FC82E0B
:102D8E00C92ED02EA009A109A00A0319A10A01304B
:102D9E00A500A31FD32ED42EDB2EA209A309A20AAF
:102DAE000319A30A0130A506A601A70120082104D4
:102DBE000319E22EE32E102F0130A400ED2E013068
:102DCE00A035A10D890BE72E0130A407A11FF02E0F
:102DDE00F12EE62E0130A635A70D890BF22E210815
:102DEE002302031DFC2E20082202031CFF2E002F9F
:102DFE00052F2008A2022108A33B26140130A1367C
:102E0E00A00C890B062F0130A402031D0F2F102FCB
:102E1E00F12E25080319142F152F1A2FA609A7090D
:102E2E00A60A0319A70A2708A1002608A000080071
:102E3E0001309331912397314001A7002408860079
:102E4E00250887002708A6000430A636890B2C2FEC
:102E5E002618322F342F0130352F003081002408F0
:102E6E008600870142312708A6000330A636890B5B
:102E7E003D2F2618432F452F0130462F003081005D
:102E8E0024088600870141312708A6000230A636A5
:102E9E00890B4E2F2618542F562F0130572F0030E6
:102EAE00810024088600870143312708A6000630DA
:102EBE00A636890B5F2F2618652F672F0130682FD6
:102ECE000030810024088600870144312708A600BF
:102EDE000730A636890B702F2618762F782F0130E3
:102EEE00792F00308100080000304001AF00003023
:102EFE00AE000330AD00E830AC00F430BD00013060
:102F0E00BE000030BF000030C0003B08C100C2014F
:102F1E00C301C4014408A3004308A2004208A10053
:102F2E004108A0000030A7003A30A6002F30A500BF
:102F3E000030A40094314324973140012008BD078E
:102F4E002108BE3D2208BF3D2308C03D4008B30006
:102F5E003F08B2003E08B1003D08B00096316A2627
:102F6E00973140012F08C8002E08C7002D08C60053
:102F7E002C08C5000030AF000030AE000330AD00AD
:102F8E00E830AC00F430BD000130BE000030BF00B0
:102F9E000030C0003908A0003A08A100A201A30128
:102FAE004808A7004708A6004608A5004508A40043
:102FBE0094314324973140012008BD072108BE3DBE
:102FCE002208BF3D2308C03D4008B3003F08B200B1
:102FDE003E08B1003D08B00096316A269731400197
:102FEE002F08BC002E08BB002D08BA002C08B90013
:102FFE0008002634023494340234B23402344E348F
:10300E00023494340234C0340334263402349434FB
:10301E000234B23402344E34023494340234C034A6
:0A302E000334763407347634073497
:020000040001F9
:0A000E008C1FFF37E93FFF3FFF3F63
:00000001FF
